:100000000C9459000C9481000C9481000C94810094
:100010000C9481000C9481000C9481000C9481005C
:100020000C9481000C9481000C9481000C9481004C
:100030000C9481000C9481000C9481000C9481003C
:100040000C947A050C9481000C94EA050C94C40578
:100050000C9481000C9481000C9481000C9481001C
:100060000C941C060C948100000000002500280060
:100070002B00040404040404040402020202020229
:10008000030303030303010204081020408001025C
:1000900004081020010204081020000000080002DB
:1000A00001000003040700000000000000003B07FF
:1000B0004D0A11241FBECFEFD8E0DEBFCDBF23E035
:1000C000AAE9B1E001C01D92AC31B207E1F711E03D
:1000D000A0E0B1E0E8E3F9E102C005900D92AA3991
:1000E000B107D9F710E0C8E5D0E004C02197FE01C0
:1000F0000E94880AC735D107C9F70E9494070C945B
:100100008F0C0C94000090E0FC01E656FF4F249108
:10011000FC01EA57FF4F3491FC01EE58FF4FE49188
:10012000EE23C9F0222339F0233001F1A8F4213065
:1001300019F1223029F1F0E0EE0FFF1FE859FF4FCF
:10014000A591B4918FB7F894EC91611126C03095C8
:100150003E233C938FBF08952730A9F02830C9F083
:10016000243049F7809180008F7D03C0809180000A
:100170008F7780938000DFCF84B58F7784BDDBCF0E
:1001800084B58F7DFBCF8091B0008F778093B000D6
:10019000D2CF8091B0008F7DF9CF3E2BDACF3FB721
:1001A000F8948091550290915602A0915702B09117
:1001B000580226B5A89B05C02F3F19F00196A11D36
:1001C000B11D3FBFBA2FA92F982F8827BC01CD01A1
:1001D000620F711D811D911D42E0660F771F881F00
:1001E000991F4A95D1F708958F929F92AF92BF922F
:1001F000CF92DF92EF92FF924B015C010E94CF0001
:100200006B017C010E94CF006C197D098E099F094A
:10021000683E734081059105A8F321E0821A910898
:10022000A108B10888EEC80E83E0D81EE11CF11CBD
:1002300081149104A104B10429F7FF90EF90DF909D
:10024000CF90BF90AF909F908F900895089508959C
:100250000895AF92BF92CF92DF92EF92FF920F93E9
:100260001F93CF93DF936C017B018B01040F151F4C
:10027000EB015E01AE18BF08C017D10759F06991B4
:10028000D601ED91FC910190F081E02DC601099518
:10029000892B79F7C501DF91CF911F910F91FF90C5
:1002A000EF90DF90CF90BF90AF900895FC01538DF9
:1002B000448D252F30E0842F90E0821B930B541740
:1002C00010F0CF96089501970895FC01918D828DCD
:1002D000981761F0A28DAE0FBF2FB11D5D968C9166
:1002E000928D9F5F9F73928F90E008958FEF9FEFA5
:1002F00008952FB7F8948091590290915A02A091D5
:100300005B02B0915C022FBF8093650290936602FE
:10031000A0936702B09368028DE592E00E946501A8
:1003200097FF26C02FB7F8948091590290915A02F6
:10033000A0915B02B0915C022FBF40916502509189
:1003400066026091670270916802841B950BA60B90
:10035000B70B40916102509162026091630270910B
:10036000640284179507A607B707B0F28FEF9FEFD7
:100370000895FC01918D828D981731F0828DE80FE0
:10038000F11D858D90E008958FEF9FEF0895FC019A
:10039000918D228D892F90E0805C9F4F821B910967
:1003A0008F73992708958DE592E00E94C70121E09F
:1003B000892B09F420E0822F089580E090E0892BBA
:1003C00029F00E94D30181110C9400000895FC01D2
:1003D000A48DA80FB92FB11DA35ABF4F2C91848DA6
:1003E00090E001968F739927848FA689B7892C9303
:1003F000A089B1898C91837080648C93938D848D56
:10040000981306C00288F389E02D80818F7D808358
:100410000895EF92FF920F931F93CF93DF93EC0118
:1004200081E0888F9B8D8C8D98131AC0E889F9899B
:10043000808185FF15C09FB7F894EE89FF8960839E
:10044000E889F98980818370806480839FBF81E01F
:1004500090E0DF91CF911F910F91FF90EF90089561
:10046000F62E0B8D10E00F5F1F4F0F731127E02E3C
:100470008C8D8E110CC00FB607FCFACFE889F98974
:10048000808185FFF5CFCE010E94E701F1CFEB8D92
:10049000EC0FFD2FF11DE35AFF4FF0829FB7F89448
:1004A0000B8FEA89FB8980818062CFCFCF93DF9366
:1004B000EC01888D8823B9F0AA89BB89E889F9897C
:1004C0008C9185FD03C0808186FD0DC00FB607FCB1
:1004D000F7CF8C9185FFF2CF808185FFEDCFCE01E4
:1004E0000E94E701E9CFDF91CF9108952091DB01D0
:1004F000260F3327331F21323105ECF420912402DB
:10050000FC0190E080E0243069F082E00895A09141
:10051000DB012191AC0145545E4FA40FB52FB11DF5
:100520002C930196861798F38091DB01680F6093F6
:10053000DB0180E0089581E008951092240281E0BB
:10054000809323021092FE0161E082E10E94830009
:1005500061E083E10E948300E9EBF0E080818E7F1F
:10056000808380818D7F808388E48093B80085E4D8
:100570008093BC000895CF93DF9391E09093BA01EC
:100580008823B9F0C091B800D091BA008091BC0026
:100590008A7B8093BC0060E082E10E94830060E07F
:1005A00083E10E9483000E949D02D093BA00C09311
:1005B000B800DF91CF9108950895E09153028091A2
:1005C0005202E81730F4F0E0E656FE4F808190E0EA
:1005D00008958FEF9FEF08959091530280915202FA
:1005E0002FEF3FEF981748F4E92FF0E0E656FE4F63
:1005F000208130E09F5F90935302C901089580915C
:10060000520290915302891B990B0895CF92DF9269
:10061000EF92FF920F931F93CF93DF937C01CB0157
:100620008A0120912A02222389F0EB016B01C40E7A
:10063000D51ECC15DD0569F06991D701ED91FC91CE
:100640000190F081E02DC7010995F3CF642F0E943E
:100650007602C801DF91CF911F910F91FF90EF902B
:10066000DF90CF900895CF93DF931F92CDB7DEB781
:10067000698320912A022223F9F02091500220322E
:1006800058F021E030E0FC013383228390E080E0E9
:100690000F90DF91CF91089580915102E82FF0E003
:1006A000E55DFD4F998190838F5F80935102809328
:1006B000500281E090E0ECCF61E0CE0101960E9413
:1006C0007602F7CFCF92DF92EF92FF920F931F93B4
:1006D000CF93DF93FC01C48121E020932A02C093D1
:1006E0004B0210925102109250028385682B8AEFC0
:1006F00092E00E943303D0915002D13208F092C0B0
:100700000E94CF006B017C0180912402811165C0A1
:1007100082E08093240281E0809323028FEF809314
:10072000220210922102D0932002ABE2B2E0E0E07C
:10073000F2E080E0D81385C01092FF018091FF01A4
:10074000CC0FC82BC093FF018091FE01813009F0CE
:100750007CC01092FE010E94CF006B017C01809151
:10076000FF018093BB008091260290912702A09107
:100770002802B0912902892B8A2B8B2B99F00E9499
:10078000CF0000912602109127022091280230917B
:1007900029026C197D098E099F090617170728077A
:1007A0003907E0F18091BC0083FDD9CF85EC8093BF
:1007B000BC000E94CF006B017C018091240282303A
:1007C00009F445C0809122028F3F61F1809122029D
:1007D000803241F18091220225C0809126029091C1
:1007E0002702A0912802B0912902892B8A2B8B2BFA
:1007F00009F48ACF0E94CF000091260210912702AF
:1008000020912802309129026C197D098E099F09D7
:10081000061717072807390708F076CF80912502B9
:100820000E94BB02109251021092500210922A02B2
:10083000DF91CF911F910F91FF90EF90DF90CF90BC
:1008400008959D9191938F5F75CF85EEB0CF809184
:10085000260290912702A0912802B0912902892BAB
:100860008A2B8B2B09F4A9CF0E94CF00009126027E
:100870001091270220912802309129026C197D09DC
:100880008E099F09061717072807390708F095CF23
:10089000C5CF90E080E008950F931F93CF938C0114
:1008A000C62F0E9462036C2F6460C8010E9462031D
:1008B0006C2F6B7FC8010E94620383EC90E001976C
:1008C000F1F7CF911F910F9108950F931F93CF933D
:1008D000DF938C01D62FC42F607F642B0E944C04C1
:1008E00080E1D89FB00111246C2BC801DF91CF911A
:1008F0001F910F910C944C04CF93DF93CDB7DEB7CB
:1009000028970FB6F894DEBF0FBECDBF98E0E6E49F
:10091000F1E0DE01119601900D929A95E1F7909128
:100920000F03981708F48FEF90E0880F991F21E0CC
:1009300030E02C0F3D1F820F931FFC016081606827
:1009400040E086E093E028960FB6F894DEBF0FBE35
:10095000CDBFDF91CF910C94650441E00E94650406
:1009600081E090E008950F931F93CF93DF938B0165
:1009700098E0899FB0011124606440E086E093E034
:100980000E946504E801085F1F4F699186E093E0CB
:100990000E94AD04C017D107C1F7DF91CF911F911D
:1009A0000F910895FC0101900020E9F73197AF0104
:1009B000481B590BBC0186E093E00C942901CF93AE
:1009C000DF93EC0188819981009711F00E942A0B36
:1009D000198218821D821C821B821A82DF91CF919C
:1009E0000895FC0180819181009711F00C942A0BED
:1009F00008950F931F93CF93DF93EC018881998122
:100A0000009759F02A813B812617370730F081E0A3
:100A1000DF91CF911F910F9108958B016F5F7F4FF1
:100A20000E94B30B009759F0998388831B830A8334
:100A30002C813D81232B59F7FC011082E8CF80E007
:100A4000E7CFEF92FF920F931F93CF93DF93EC01C9
:100A50007B018A01BA010E94F90481110BC0CE0109
:100A60000E94DF04CE01DF91CF911F910F91FF9083
:100A7000EF9008951D830C83B701888199810E94AE
:100A8000790CF0CF85ED8093BC0080912602909187
:100A90002702A0912802B09129020796A11DB11D3D
:100AA00023E0B695A795979587952A95D1F720913C
:100AB000BC0024FD03C01092240208954091260238
:100AC000509127026091280270912902452B462BF4
:100AD000472B69F30097A105B10541F02AE22A9559
:100AE000F1F700C00197A109B109E1CF809125027A
:100AF0000C94BB021F920F920FB60F9211242F93EA
:100B00003F938F939F93AF93BF938091590290919E
:100B10005A02A0915B02B0915C023091540223E032
:100B2000230F2D3758F50196A11DB11D20935402B6
:100B30008093590290935A02A0935B02B0935C0297
:100B40008091550290915602A0915702B09158029F
:100B50000196A11DB11D8093550290935602A0935A
:100B60005702B0935802BF91AF919F918F913F91DF
:100B70002F910F900FBE0F901F90189526E8230F0E
:100B80000296A11DB11DD2CF1F920F920FB60F92E8
:100B900011242F933F934F935F936F937F938F9382
:100BA0009F93AF93BF93EF93FF938DE592E00E94E5
:100BB000E701FF91EF91BF91AF919F918F917F914D
:100BC0006F915F914F913F912F910F900FBE0F90BA
:100BD0001F9018951F920F920FB60F9211242F930A
:100BE0008F939F93EF93FF93E0916D02F0916E02CC
:100BF0008081E0917302F091740282FD1BC09081AC
:100C0000809176028F5F8F7320917702821741F077
:100C1000E0917602F0E0E35AFD4F958F80937602E3
:100C2000FF91EF919F918F912F910F900FBE0F9099
:100C30001F9018958081F4CF1F920F920FB60F92DC
:100C400011242F933F934F935F936F937F938F93D1
:100C50009F93AF93BF93EF93FF938091B900887FE9
:100C6000803609F44AC0F0F5883209F4A7C018F5B7
:100C7000803109F49BC0B8F4882309F4F9C08830A6
:100C800009F494C0FF91EF91BF91AF919F918F9123
:100C90007F916F915F914F913F912F910F900FBE78
:100CA0000F901F901895883109F488C0803251F751
:100CB0008093220214C0803409F49DC040F4803334
:100CC000B9F38833F9F68093220285ECB0C0803501
:100CD00009F485C0883509F496C0883499F60E94D5
:100CE0004205D0CF883909F48CC038F5883729F00F
:100CF00050F4883611F0803729F683E0809324027F
:100D00001092FD0157C0883809F47BC0803919F072
:100D1000803809F0B7CF8091FD01803208F071C0B2
:100D2000E091FD0181E08E0F8093FD018091BB0079
:100D3000F0E0E352FE4F80833DC0803B39F0E0F4A9
:100D4000803A09F479C0883A09F09CCF84E0809316
:100D500024021092DC011092DB01E0914E02F0912E
:100D60004F0209958091DB0181110FC081E08093D2
:100D7000DB011092BB0109C0803C09F4A6CF883C7E
:100D800009F4A3CF883B09F07DCFE091DC0181E03D
:100D90008E0F8093DC01F0E0E554FE4F808180935C
:100DA000BB009091DC018091DB0129C08091FF01A3
:100DB0008093BB0085EC8093BC0064CF90912102AE
:100DC00080912002981758F5E091210281E08E0F62
:100DD00080932102F0E0E050FE4F8081E9CFE09166
:100DE000210281E08E0F809321028091BB00F0E010
:100DF000E050FE4F8083909121028091200298174D
:100E0000C8F285E8D8CFE091210281E08E0F80936F
:100E100021028091BB00F0E0E050FE4F8083809182
:100E2000230281115CCF81E08093FE0184EA8093EC
:100E3000BC001092240226CF85EC8093BC00109257
:100E400024028091FD01803230F4E091FD01F0E058
:100E5000E352FE4F10826091FD0170E0E0914C0280
:100E6000F0914D028DED91E009951092FD010ACFB0
:100E70001092220234CFEDE5F2E01382128288EE66
:100E800093E0A0E0B0E084839583A683B78322E556
:100E900031E03183208325EC30E03587248724EC52
:100EA00030E03787268720EC30E0318B208B21EC37
:100EB00030E0338B228B22EC30E0358B248B26EC18
:100EC00030E0378B268B118E128E138E148EEAEF44
:100ED000F2E01382128284839583A683B78384E62B
:100EE00091E091838083E2E1F3E01182108213822A
:100EF00012821582148250E040E06DE871E0CF016B
:100F00000E942105E6E0F3E01382128286E791E079
:100F10009183808387E2848380E1808782E0818778
:100F2000128688E083870895CF93DF93CDB7DEB72D
:100F30002C970FB6F894DEBF0FBECDBF789484B562
:100F4000826084BD84B5816084BD85B5826085BDC5
:100F500085B5816085BD80916E00816080936E0053
:100F60001092810080918100826080938100809145
:100F700081008160809381008091800081608093F6
:100F800080008091B10084608093B1008091B000B6
:100F900081608093B00080917A00846080937A00B1
:100FA00080917A00826080937A0080917A008160DB
:100FB00080937A0080917A00806880937A00109202
:100FC000C100E0916D02F0916E0282E08083E091B9
:100FD0006902F0916A021082E0916B02F0916C025A
:100FE0008FEC808310927502E0917102F091720291
:100FF00086E08083E0916F02F091700280818061D1
:101000008083E0916F02F09170028081886080831C
:10101000E0916F02F0917002808180688083E0919E
:101020006F02F091700280818F7D80831092530255
:101030001092520210925102109250020E949D0290
:1010400086E291E090934F0280934E0287E291E016
:1010500090934D0280934C0210920B0380910F03EA
:10106000823018F098E090930B039091100399232D
:1010700039F0813029F480910B03846080930B0355
:1010800062E370E080E090E00E94F4006091110360
:1010900086E093E00E94620368EE73E080E090E0F7
:1010A0000E94F40060E386E093E00E944C040BE4AD
:1010B00016E4C8010197F1F760E386E093E00E942F
:1010C0004C04C8010197F1F760E386E093E00E94C9
:1010D0004C0483E592E00197F1F760E286E093E04B
:1010E0000E944C0460910B03606240E086E093E054
:1010F0000E94650484E080930C0340E06CE086E08D
:1011000093E00E94650440E061E086E093E00E9485
:1011100065040BE31FE1C8010197F1F782E08093BA
:101120000D0340E066E086E093E00E94650440E045
:1011300062E086E093E00E946504C8010197F1F740
:1011400088E08093110360E086E093E00E946203F0
:1011500068E371E080E00E94B30460E371E081E045
:101160000E94B30468E271E082E00E94B30460E28E
:1011700071E083E00E94B30468E171E084E00E94C2
:10118000B30460E171E085E00E94B30468E071E0BF
:1011900086E00E94B30460E071E087E00E94B3043F
:1011A00040E062E086E093E00E946504C801019798
:1011B000F1F78EE791E00E94D20481E00E947C0466
:1011C00089E891E00E94D20463E086E093E00E9407
:1011D000AD048EE891E00E94D20468EE73E080E0F6
:1011E00090E00E94F40080E0E82E80E0F82ECDB67A
:1011F000DEB641E050E06CE871E08DE592E00E94DF
:1012000029011A8219821C821B821E821D8250E0D3
:1012100040E06DE871E0CE0101960E9421050E9438
:10122000790197FD1BC08F8318860D811E810F5F8A
:101230001F4FB801CE0101960E94F904882379F36B
:1012400029813A818D819E81BE01695F7F4F820F26
:10125000931F0E94790C1E830D83E1CF80911203AE
:1012600090911303009709F4F7C069817A816115A1
:10127000710509F4EFC040911403509115032D81BD
:101280003E814217530708F4E5C00E94790C8D8116
:101290009E8190931703809316031E821D82CE01B8
:1012A00001960E94F104A0901603B0901703C501A7
:1012B00001962DB73EB7281B390B0FB6F8943EBFE9
:1012C0000FBE2DBF0DB71EB70F5F1F4F892B81F0CB
:1012D000F801A114B10459F0609112037091130345
:1012E000A501C8010E94800CF801EA0DFB1D1082C7
:1012F00018861F821A8619861C861B86F8010190A3
:101300000020E9F73197AF01401B510BB801CE0126
:1013100007960E94210580E00E947C041A821982AF
:101320001C821B821E821D8250E040E06DE871E04D
:10133000CE0101960E9421050B851C850115110522
:1013400019F10031110510F000E110E0EF81F8858E
:10135000E00FF11FB08010826F81788561157105F3
:1013600009F491C0FB0101900020E9F73197AF012A
:10137000461B570BCE0101960E9421058F8198854F
:10138000080F191FF801B0824D815E8169817A8151
:1013900086E093E00E942901CE0101960E94F104AB
:1013A00081E00E947C041A8219821C821B821E82A8
:1013B0001D8250E040E06DE871E0CE0101960E9490
:1013C00021050B851C850131110518F1003211052D
:1013D00010F000E210E0EF81F885E00FF11FB0801F
:1013E00010826F817885605F7F4F09F451C0FB01E7
:1013F00001900020E9F73197AF01461B570BCE0152
:1014000001960E9421058F819885080F191FF80108
:10141000B0824D815E8169817A8186E093E00E948D
:101420002901CE0101960E94F104CE0107960E9487
:10143000F1040FB6F894DEBE0FBECDBEE114F10488
:1014400009F4D5CE0E94D301882309F4D0CE0E949E
:101450000000CDCE0E942A0B89819A8190931303BC
:10146000809312038B819C819093150380931403C6
:101470008D819E8190931703809316031A8219829F
:101480001C821B820ACFCE0101960E94DF0476CF18
:10149000CE0101960E94DF04B6CF82E193E00C9466
:1014A000F1042F923F924F925F926F927F928F92B0
:1014B0009F92AF92BF92CF92DF92EF92FF920F93E3
:1014C0001F93CF93DF93CDB7DEB7CA1BDB0B0FB6ED
:1014D000F894DEBF0FBECDBF09942A8839884888AA
:1014E0005F846E847D848C849B84AA84B984C88440
:1014F000DF80EE80FD800C811B81AA81B981CE0F37
:10150000D11D0FB6F894DEBF0FBECDBFED0108951B
:10151000EE0FFF1F0590F491E02D09940F931F9398
:10152000CF93DF938230910510F482E090E0E09158
:101530001A03F0911B0330E020E0B0E0A0E0309708
:1015400099F42115310509F44AC0281B390B2430C0
:101550003105D8F58A819B816115710589F1FB01FF
:1015600093838283FE0111C04081518102811381E6
:1015700048175907E0F04817590799F4109761F098
:1015800012960C93129713961C933296CF01DF910B
:10159000CF911F910F91089500931A0310931B038D
:1015A000F4CF2115310551F04217530738F0A90146
:1015B000DB019A01BD01DF01F801C1CFEF01F9CFD5
:1015C00090931B0380931A03CDCFFE01E20FF31F0C
:1015D000819391932250310939832883D7CF209169
:1015E000180330911903232B41F4209142013091CB
:1015F0004301309319032093180320914001309147
:1016000041012115310541F42DB73EB74091440108
:1016100050914501241B350BE0911803F0911903FB
:10162000E217F307A0F42E1B3F0B2817390778F0B9
:10163000AC014E5F5F4F2417350748F04E0F5F1F18
:101640005093190340931803819391939FCFF0E037
:10165000E0E09CCFCF93DF930097E9F0FC01329755
:1016600013821282A0911A03B0911B03ED0130E0A6
:1016700020E01097A1F420813181820F931F2091E7
:101680001803309119032817390709F061C0F09346
:101690001903E0931803DF91CF910895EA01CE1763
:1016A000DF07E8F54A815B819E0141155105B1F7DD
:1016B000E901FB83EA8349915991C40FD51FEC17C7
:1016C000FD0761F4808191810296840F951FE901E5
:1016D00099838883828193819B838A83F0E0E0E011
:1016E00012968D919C9113970097B9F52D913C918D
:1016F0001197CD010296820F931F2091180330910C
:1017000019032817390739F6309751F510921B0342
:1017100010921A03B0931903A0931803BCCFD3837C
:10172000C28340815181840F951FC817D90761F486
:101730004E5F5F4F88819981480F591F51834083C5
:101740008A819B81938382832115310509F0B0CF73
:10175000F0931B03E0931A039ECFFD01DC01C0CF81
:1017600013821282D7CFB0E0A0E0E9EBFBE00C944B
:10177000530A8C01009751F4CB010E948E0A8C0110
:10178000C801CDB7DEB7E0E10C946F0AFC01E60FAB
:10179000F71F9C0122503109E217F30708F49DC09E
:1017A000D901CD91DC911197C617D70798F0C530B4
:1017B000D10530F3CE0104978617970708F3C61BAF
:1017C000D70B2297C193D1936D937C93CF010E9445
:1017D0002A0BD6CF5B01AC1ABD0A4C018C0E9D1EA4
:1017E000A0911A03B0911B03512C412CF12CE12C38
:1017F000109731F580911803909119038815990578
:1018000009F05CC04616570608F058C080914001A8
:1018100090914101009741F48DB79EB740914401EA
:1018200050914501841B950BE817F90708F055C046
:10183000F0931903E0931803F90171836083A0CF3B
:101840008D919C91119712966C90129713967C90A3
:101850001397A815B90559F56C0142E0C40ED11CC7
:10186000CA14DB0420F1AC014A195B09DA011296B3
:10187000159780F06282738251834083D9016D9302
:101880007C93E114F10471F0D7011396FC93EE936D
:10189000129776CF22968C0F9D1FF901918380833A
:1018A000F301EFCFF0931B03E0931A0369CF4816BF
:1018B000590608F42C017D01D3019ACFCB010E9477
:1018C0008E0A7C01009749F0AE01B8010E94700CAD
:1018D000C8010E942A0B870153CF10E000E050CFCF
:1018E000FB01DC0102C001900D9241505040D8F73D
:1018F0000895FB01DC0101900D920020E1F70895AD
:10190000FB01DC014150504048F001900D92002055
:10191000C9F701C01D9241505040E0F7089510E012
:10192000C8E5D0E004C0FE010E94880A2196C935AE
:08193000D107C9F7F894FFCFBD
:10193800010105091F080400001B0E040E1B00000E
:10194800000103161C080000000C1D0F0F06000004
:10195800000A1F1F0E040000000E1517110E0000CC
:101968000203020E1E0C0000040E0E0E1F000400DF
:1019780000001C0380000000400014005400000018
:1019880000000902290156015602C7016501B90183
:1019980000000000330306034904DC02FF02EC02E6
:1019A800DD0200000000AD04290149042801426558
:1019B8006D2076696E646F210020766320002061B7
:0A19C800726475696E6F733F0000D2
:00000001FF
